:100000000C944A000C9467000C9467000C946700F1
:100010000C9467000C9467000C9467000C946700C4
:100020000C9467000C9467000C9467000C946700B4
:100030000C9467000C9467000C9467000C946700A4
:100040000C9467000C9467000C9467000C94670094
:100050000C9467000C9467000C9467000C94670084
:100060000C9467000C9467000C9467000C94670074
:100070000C9467000C9467000C9467000C94670064
:100080000C9467000C9467000C9467000C94FB01BF
:100090000C94670011241FBECFEFD8E0DEBFCDBFA8
:1000A00011E0A0E0B1E0EAEBFCE002C005900D92A7
:1000B000AE31B107D9F711E0AEE1B1E001C01D9258
:1000C000A93EB107E1F70E94E3020C945B060C9491
:1000D000000085B1806F85B92A9A84B18F7084B988
:1000E00083B12A982A9A93B12A9892959F70807F1B
:1000F000892B089595B19F70282F207F292B25B932
:100100002A9A2A988295807F982B95B92A9A2A98BC
:10011000089585B92A9A2A9808950F931F93DF931B
:10012000CF930F92CDB7DEB78E010F5F1F4F289888
:10013000299A0E9469008983F80180818823BCF391
:1001400029988FEF84B90F90CF91DF911F910F9174
:1001500008958FEF84B984B9289829982A982A9A03
:100160002D9A2A980E948D0088E20E947A000E94AF
:100170008D0028988CE00E947A000E948D002898BB
:1001800086E00E947A000E948D000895289882E0FF
:100190000E947A000E948D00089528988295880F09
:1001A000880F807C860F815C0E947A000E948D00FF
:1001B0000895289881E00E947A000E948D00089599
:1001C000289A0E947A000E948D0008951F93CF9371
:1001D000DF93EC018881882351F010E00E94E00059
:1001E0001F5FFE01E10FF11D80818823B9F7DF91C8
:1001F000CF911F9108951092B90080E28093B800CA
:1002000080911D01880F8F5F8093BA0085E48093F1
:10021000BC0008950F931F93CF93DF93ECEBF0E0B6
:1002200090819E7F908394EA908390819923ECF74C
:100230009091B900987F983031F00E94FB00809136
:10024000B900887F43C0880F8093BB0084E8809307
:10025000BC00ECEBF0E080818823ECF78091B900E2
:10026000887F883131F4242F30E0121613063CF0D9
:1002700027C00E94FB008091B900887F27C0A62F6D
:10028000B72F80E090E04BEB50E0ECEBF0E074E84F
:1002900009EB10E06D91EA01688370836081662349
:1002A000ECF7E8016881687F683231F00E94FB005A
:1002B0008091B900887F0AC001968217930754F392
:1002C00084E98093BC000E94FB0080E0DF91CF9125
:1002D0001F910F910895CF92DF92EF92FF920F93AB
:1002E0001F93CF93DF93ECEBF0E090819E7F9083A0
:1002F00094EA908390819923ECF71091B900187FCC
:10030000183031F084E98093BC000E94FB0069C082
:10031000880F8F5F8093BB0084E88093BC00ECEB78
:10032000F0E080818823ECF71091B900187F103439
:1003300041F4242F30E021503040121613063CF0D7
:100340002DC084E98093BC000E94FB004AC06B0171
:1003500080E090E0ECEBF0E004ECA9EBB0E00F2ED5
:10036000FBEBEF2EFF24F02D0083508155232CF062
:100370001C91187F50815523DCF7103531F084E94A
:100380008093BC000E94FB002CC0E7015881E6016D
:1003900059936E0101968217930734F3ECEBF0E06A
:1003A00084E88083808188233CF0A9EBB0E01C9135
:1003B000187F80818823DCF7183531F084E9809339
:1003C000BC000E94FB000DC08091BB00640F711D3A
:1003D000FB013197808384E98093BC000E94FB007D
:1003E00010E0812FDF91CF911F910F91FF90EF903F
:1003F000DF90CF9008951F920F920FB60F921124A5
:100400008F939F93EF93FF938091B900883909F4FC
:1004100073C0893980F4803871F1813830F48036C6
:1004200001F1803709F0C6C04AC08838B1F180397F
:1004300009F0C0C04FC0803B09F499C0813B38F43B
:10044000803A09F46BC0883A09F0B4C06DC0803CB2
:1004500009F49CC0883C09F49FC0883B09F0AAC0FD
:1004600077C01092200110921F01ECEBF0E0808128
:10047000806C80839FC080911F019091BB00E1E25E
:10048000F1E0E80FF11D90838F5F80931F01ECEB8B
:10049000F0E08081806C80838DC080911F019091FD
:1004A000BB00E1E2F1E0E80FF11D90838F5F8093E4
:1004B0001F01ECEBF0E08081806C80837BC081E0E9
:1004C0008093200110921F01ECEBF0E08081806CA2
:1004D000808370C080911F019091BB00E1E2F1E048
:1004E000E80FF11D90838F5F80931F01ECEBF0E02C
:1004F0008081806C80835EC080911F019091BB00E1
:10050000E1E2F1E0E80FF11D90838F5F80931F011E
:10051000ECEBF0E08081806C80834CC0ECEBF0E091
:100520008081806C808346C080911E018F5F8093A4
:100530001E0180911E01E5E8F1E0E80FF11D8081C8
:100540008093BB00ECEBF0E08081806C808332C054
:1005500080911E01E5E8F1E0E80FF11D80818093B4
:10056000BB00ECEBF0E08081806C808323C0809145
:100570001E01E5E8F1E0E80FF11D80818093BB00EA
:10058000ECEBF0E08081806C808314C0ECEBF0E059
:100590008081806C80830EC080911E01E5E8F1E0CF
:1005A000E80FF11D80818093BB00ECEBF0E08081CF
:1005B000806C8083FF91EF919F918F910F900FBE80
:1005C0000F901F901895CF92DF92EF92FF920F93AA
:1005D0001F93DF93CF9300D000D00F92CDB7DEB73B
:1005E0008FEF8BB91AB889B18295869586958370FD
:1005F00080931D010E94FB000E94A9000E94D90067
:10060000789480E090E025E831E0F901E80FF91FE7
:100610008083019684369105C1F78FE493EC0197AE
:10062000F1F700C0000020911D0100D000D000D0E3
:10063000EDB7FEB731968E010F5F1F4FADB7BEB756
:1006400012961C930E93119780E091E0938382831E
:10065000248315820E947A038DB79EB706960FB643
:10066000F8949EBF0FBE8DBF83E091E00E94E6002C
:10067000C8010E94E60082E061E00E94CD0081E1B5
:1006800091E00E94E6000F2EF5E8EF2EF1E0FF2E3C
:10069000F02D8E010F5F1F4F0F2EF0E0CF2EF1E0F7
:1006A000DF2EF02D80911E01F701E80FF11D8081F2
:1006B00000D000D000D0EDB7FEB73196ADB7BEB7D1
:1006C00012961C930E931197D382C2828483158253
:1006D0000E947A038DB79EB706960FB6F8949EBF18
:1006E0000FBE8DBF82E06CE00E94CD00C8010E9469
:1006F000E600D8CFAEE0B0E0E0E8F3E00C943206DC
:100700000D891E8986E08C831A8309838FEF9FE70A
:100710009E838D839E01275E3F4FCE0101966F8998
:10072000788DA9010E949D03EF81F885E00FF11FEC
:1007300010822E96E4E00C944E06ACE0B0E0E3EAC2
:10074000F3E00C9424066C011B018A01FC01178262
:100750001682838181FFD1C12E010894411C511C56
:10076000F6019381F10193FD859193FF81911F0122
:10077000882309F4BEC1853239F493FD859193FF36
:1007800081911F01853229F490E0B6010E949A05FB
:10079000E7CFEE24FF2420E02032B0F48B3269F062
:1007A0008C3228F4803251F0833271F40BC08D32D8
:1007B00039F0803349F421602CC02260246029C0C4
:1007C000286027C0206125C027FD2CC0382F30535A
:1007D0003A3098F426FF08C08E2D880FE82EEE0CD4
:1007E000EE0CE80EE30E15C08F2D880FF82EFF0CCF
:1007F000FF0CF80EF30E20620CC08E3221F426FDA1
:1008000078C1206406C08C3611F4206802C0883696
:1008100049F4F10193FD859193FF81911F01882394
:1008200009F0BACF982F9554933018F09052933026
:1008300028F40C5F1F4FFFE3F9830DC0833631F0BE
:10084000833771F0833509F060C022C0F8018081E0
:1008500089830E5F1F4F420171E0A72EB12C16C095
:1008600062E0662E712C600E711EF801808091800E
:1008700026FF03C06E2D70E002C06FEF7FEFC40152
:100880002C870E948F055C0183012C852F7717C070
:1008900052E0652E712C600E711EF80180809180EF
:1008A00026FF03C06E2D70E002C06FEF7FEFC40122
:1008B0002C870E9484055C012C852068830123FD20
:1008C00020C008C080E290E0B6012C870E949A0503
:1008D000FA942C858F2D90E0A816B90698F311C0D4
:1008E000F40127FD859127FF81914F0190E0B6012A
:1008F0002C870E949A052C85F110FA940894A1087F
:10090000B108A114B10461F7F1C0843611F0893641
:1009100049F527FF08C0F8016081718182819381C8
:100920000C5F1F4F09C0F80160817181882777FD36
:100930008095982F0E5F1F4F4FE6B42EB22297FF7F
:1009400009C090958095709561957F4F8F4F9F4F0F
:10095000F0E8BF2AA2012AE030E00E94C605782E06
:10096000741845C0853731F43FEEB32EB2222AE029
:1009700030E025C099EFB92EB2228F36C1F0803712
:1009800020F4883509F0B5C00DC0803721F08837D4
:1009900009F0AFC002C020E1B22AB4FE0BC084E06F
:1009A000B82A08C0B4FE09C0E6E0BE2A06C028E0A6
:1009B00030E005C020E130E002C020E132E0B7FEC7
:1009C00008C0F80160817181828193810C5F1F4FA3
:1009D00007C0F8016081718180E090E00E5F1F4FD9
:1009E000A2010E94C605782E7418FFE7BF22B6FE4A
:1009F0000BC02EEFB2227E1438F4B4FE07C0B2FC56
:100A000005C08FEEB82202C0A72C01C0AE2C8B2DE2
:100A100090E0B4FE0DC0FE01E70DF11D20812033F2
:100A200019F4E9EEBE2209C0A394B2FE06C004C0C8
:100A300086789070009709F0A3948B2C9924B3FCCE
:100A400014C0B0FE0FC0AF1428F4E72CEF0CEA1866
:100A5000AF2C08C0E72C06C080E290E0B6010E94EF
:100A60009A05A394AF14C0F304C0AF1410F4FA189D
:100A700001C0FF2484FE0FC080E390E0B6010E9415
:100A80009A0582FE1FC081FE03C088E590E010C079
:100A900088E790E00DC0C40186789070009791F0CF
:100AA00081FC02C080E201C08BE2B7FC8DE290E0E5
:100AB000B6010E949A0506C080E390E0B6010E944C
:100AC0009A05EA947E14C0F37A94F201E70DF11DC1
:100AD000808190E0B6010E949A057720A9F706C0B0
:100AE00080E290E0B6010E949A05FA94FF20C1F7D7
:100AF00037CEF6012681378102C02FEF3FEFC901C3
:100B00002C96E2E10C944006FC0105906150704087
:100B10000110D8F7809590958E0F9F1F0895FC01C6
:100B20006150704001900110D8F7809590958E0F1C
:100B30009F1F08950F931F93CF93DF938C01EB01B9
:100B40008B8181FF1BC082FF0DC02E813F818C8174
:100B50009D812817390764F4E881F9810193F983AD
:100B6000E88306C0E885F985802F0995009731F460
:100B70008E819F8101969F838E8302C00FEF1FEFAE
:100B8000C801DF91CF911F910F910895FA01AA2713
:100B9000283051F1203181F1E8946F936E7F6E5FC0
:100BA0007F4F8F4F9F4FAF4FB1E03ED0B4E03CD06E
:100BB000670F781F891F9A1FA11D680F791F8A1F51
:100BC000911DA11D6A0F711D811D911DA11D20D0B8
:100BD00009F468943F912AE0269F11243019305D72
:100BE0003193DEF6CF010895462F4770405D419363
:100BF000B3E00FD0C9F7F6CF462F4F70405D4A33B0
:100C000018F0495D31FD4052419302D0A9F7EACF77
:100C1000B4E0A6959795879577956795BA95C9F7A6
:100C200000976105710508959B01AC010A2E069499
:100C30005795479537952795BA95C9F7620F731F52
:100C4000841F951FA01D08952F923F924F925F928F
:100C50006F927F928F929F92AF92BF92CF92DF92CC
:100C6000EF92FF920F931F93CF93DF93CDB7DEB731
:100C7000CA1BDB0B0FB6F894DEBF0FBECDBF0994C5
:100C80002A88398848885F846E847D848C849B841C
:100C9000AA84B984C884DF80EE80FD800C811B812A
:100CA000AA81B981CE0FD11D0FB6F894DEBF0FBE59
:0A0CB000CDBFED010895F894FFCFC9
:100CBA0025690044657669636520616464723A2037
:0E0CCA000053656E7420646174613A2000026C
:00000001FF
