:100000000C942A000C943F000C943F000C943F0089
:100010000C943F000C943F000C943F000C943F0064
:100020000C943F000C943F000C943F000C943F0054
:100030000C943F000C943F000C943F000C943F0044
:100040000C943F000C943F000C943F000C943F0034
:100050000C943F0011241FBECFE5D8E0DEBFCDBF1A
:1000600010E0A0E6B0E0EEE1F2E002C005900D92F3
:10007000A637B107D9F70E94FA000C940D010C9431
:10008000000088B3806F88BBC29A87B38F7087BB2C
:1000900086B3C298C29A96B3C29892959F70807F99
:1000A000892B089598B39F70282F207F292B28BB78
:1000B000C29AC2988295807F982B98BBC29AC298A8
:1000C000089588BBC29AC29808950F931F93DF9337
:1000D000CF930F92CDB7DEB78E010F5F1F4FC09841
:1000E000C19A0E9441008983F80180818823BCF372
:1000F000C1988FEF87BB0F90CF91DF911F910F9128
:1001000008958FEF87BB87BBC098C198C298C29AE9
:10011000C59AC2980E94650088E20E9452000E941F
:100120006500C0988EE00E9452000E946500C09851
:1001300086E00E9452000E9465000895C09882E007
:100140000E9452000E9465000895C0988295880F11
:10015000880F807C860F815C0E9452000E9465009F
:100160000895C09881E00E9452000E9465000895A1
:10017000C09A0E9452000E9465000895CF92DF92BB
:10018000EF92FF920F931F93CF93DF93E62EFF24FE
:10019000CC24DD246894C4F8CE18DF08D694C79424
:1001A0008C010C191D09C0E0D0E0EC0CFD1CCE1533
:1001B000DF0570F4CC15DD0558F0F8018081882347
:1001C00019F00E94B80007C080E20E94B80003C086
:1001D00080E20E94B80021960F5F1F4FC031D10509
:1001E00031F7DF91CF911F910F91FF90EF90DF904A
:1001F000CF9008950E9481000E94B10080E690E0B7
:100200006BE00E94BE0082E061E00E94A5008CE6E7
:0E02100090E068E00E94BE00FFCFF894FFCFA0
:10021E0048656C6C6F20776F726C640044756F6EFE
:06022E006720547500007A
:00000001FF
