:100000000C942A000C9447000C9447000C94470071
:100010000C9447000C9447000C9447000C94470044
:100020000C9447000C9447000C9447000C94470034
:100030000C9447000C9447000C9447000C94470024
:100040000C9447000C9447000C9447000C94470014
:100050000C94470011241FBECFE5D8E0DEBFCDBF12
:1000600010E0A0E6B0E0E4EFF2E002C005900D92EF
:10007000A437B107D9F710E0A4E7B0E001C01D92A2
:10008000A537B107E1F70E9461010C9478010C9447
:10009000000085B3806F85BBAA9A84B38F7084BB40
:1000A00083B3AA98AA9A93B3AA9892959F70807FD7
:1000B000892B089595B39F70282F207F292B25BB6E
:1000C000AA9AAA988295807F982B95BBAA9AAA98FB
:1000D000089585BBAA9AAA9808950F931F93DF935A
:1000E000CF930F92CDB7DEB78E010F5F1F4FA89849
:1000F000A99A0E9449008983F80180818823BCF372
:10010000A9988FEF84BB0F90CF91DF911F910F9132
:1001100008958FEF84BB84BBA898A998AA98AA9A3F
:10012000AD9AAA980E946D0088E20E945A000E942F
:100130006D00A8988EE00E945A000E946D00A89859
:1001400086E00E945A000E946D000895A89882E0FF
:100150000E945A000E946D000895A8988295880F09
:10016000880F807C860F815C0E945A000E946D007F
:100170000895A89881E00E945A000E946D00089599
:10018000A89A0E945A000E946D000895CF92DF92B3
:10019000EF92FF920F931F93CF93DF93E62EFF24EE
:1001A000CC24DD246894C4F8CE18DF08D694C79414
:1001B0008C010C191D09C0E0D0E0EC0CFD1CCE1523
:1001C000DF0570F4CC15DD0558F0F8018081882337
:1001D00019F00E94C00007C080E20E94C00003C066
:1001E00080E20E94C00021960F5F1F4FC031D105F1
:1001F00031F7DF91CF911F910F91FF90EF90DF903A
:10020000CF900895CF92DF92EF92FF920F931F93BA
:10021000CF93DF9380E090E041E050E0E0E6F0E053
:10022000A1E6B0E00F2EF2E6CF2EF0E0DF2EF02DAB
:1002300003E610E0BC019C012C5F3F4F7A0102C035
:10024000EE0CFF1C2A95E2F79701209528BB23E0CE
:100250002A95F1F7000026B32F702F3021F130815D
:100260003217A1F03C91321759F0E601388132176C
:1002700051F0E80138813217B1F4E3E0F0E008C052
:10028000E1E0F0E005C0E2E0F0E002C0E0E0F0E034
:10029000EE0FFF1FEE0FFF1F6E0F7F1FFB01EC59CC
:1002A000FF4F808105C001968430910519F680E0EA
:1002B000DF91CF911F910F91FF90EF90DF90CF9042
:1002C00008958FE088BB80EF87BB0E9489000E9461
:1002D000B9000E9402018093740081E061E00E94F5
:1002E000AD00809174008823A1F30E94C000F1CF7B
:0402F000F894FFCFB0
:1002F4000E0D0B073738392F3435362A3132332D6A
:040304004E303D2B0F
:00000001FF
