:100000000C944D000C9457000C9457000C9457001E
:100010000C9457000C9457000C9457000C94570004
:100020000C9457000C9457000C9457000C945700F4
:100030000C9457000C9457000C9457000C945700E4
:100040000C9457000C9457000C9457000C945700D4
:100050000C945700000000000000007D00000070BC
:100060000070003E4549513E00217F01002143457B
:10007000493142415169463F4444443F7F494949DF
:10008000363E41414122021515150F7F0911110E0F
:100090000E111111027F7F7F7F7F11241FBECFE5DC
:1000A000D8E0DEBFCDBF0E9476000C947D000C949A
:1000B000000095E0899FC00111249C01205A304026
:1000C0008B59904061E048EE53E065BBF901EC5A72
:1000D000FF4FE491E095E2BB660FFA013197F1F72B
:1000E0002F5F3F4F2817390781F708958FEF81BBA6
:0E00F00085BB84E30E945900FCCFF894FFCF3B
:00000001FF
