:100000000C942A000C943F000C943F000C943F0089
:100010000C943F000C943F000C943F000C943F0064
:100020000C943F000C943F000C943F000C943F0054
:100030000C943F000C943F000C943F000C943F0044
:100040000C943F000C943F000C943F000C943F0034
:100050000C943F0011241FBECFE5D8E0DEBFCDBF1A
:1000600010E0A0E6B0E0E4E2F2E002C005900D92FC
:10007000AC36B107D9F70E94FC000C9410010C9427
:10008000000088B3806F88BB87B38F7087BBC29A2C
:10009000C29A86B3C298C29AC29A96B3C2989295EF
:1000A0009F70807F892B089598B39F70282F207FA1
:1000B000292B28BBC29AC2988295807F982B98BB27
:1000C000C29AC298089588BBC29AC29808950F93A5
:1000D0001F93DF93CF930F92CDB7DEB78E010F5FE3
:1000E0001F4FC098C19A0E9441008983F801808106
:1000F0008823BCF3C1988FEF87BB0F90CF91DF911E
:100100001F910F9108958FEF87BB87BBC098C1984F
:10011000C298C29AC59AC2980E94670088E20E945B
:1001200054000E946700C0988EE00E9454000E9414
:100130006700C09886E00E9454000E9467000895FE
:10014000C09882E00E9454000E9467000895C09801
:100150008295880F880F807C860F815C0E945400F6
:100160000E9467000895C09881E00E9454000E9498
:1001700067000895C09A0E9454000E946700089585
:10018000CF92DF92EF92FF920F931F93CF93DF9363
:10019000E62EFF24CC24DD246894C4F8CE18DF08B2
:1001A000D694C7948C010C191D09C0E0D0E0EC0C6A
:1001B000FD1CCE15DF0570F4CC15DD0558F0F801F7
:1001C0008081882319F00E94BA0007C080E20E9453
:1001D000BA0003C080E20E94BA0021960F5F1F4F51
:1001E000C031D10531F7DF91CF911F910F91FF9071
:1001F000EF90DF90CF9008950E9483000E94B3009B
:1002000080E690E090E065E00E94C00082E061E05E
:100210000E94A70086E690E064E00E94C000FFCF45
:04022000F894FFCF80
:0C02240054757575750068696869000004
:00000001FF
