:100000000C942A000C9434000C9434000C943400AA
:100010000C9434000C9434000C9434000C94340090
:100020000C9434000C9434000C9434000C94340080
:100030000C9434000C9434000C9434000C94340070
:100040000C9434000C9434000C9434000C94340060
:100050000C94340011241FBECFE5D8E0DEBFCDBF25
:100060000E94D3000C94DA000C94000081E085BB60
:100070008DE382BB83EC99E00197F1F700C00000AB
:1000800082E085BB8EE382BB83EC99E00197F1F7B8
:1000900000C0000084E085BB8EE282BB83EC99E067
:1000A0000197F1F700C0000088E085BB86E182BBC4
:1000B00083EC99E00197F1F700C0000080E185BB77
:1000C00089E382BB83EC99E00197F1F700C000005F
:1000D000089583EC99E00197F1F700C0000081E0FA
:1000E00085BB8FE382BBE3ECF9E03197F1F700C009
:1000F000000092E095BB82BBE3ECF9E03197F1F7A9
:1001000000C0000094E095BB12BAE3ECF9E031972F
:10011000F1F700C0000098E095BB82BBE3ECF9E08A
:100120003197F1F700C0000090E195BB82BB83ECF2
:1001300099E00197F1F700C00000089583EC99E081
:100140000197F1F700C0000081E085BB82BBE3ECC2
:10015000F9E03197F1F700C0000092E095BB9EE70F
:1001600092BBE3ECF9E03197F1F700C0000024E026
:1001700025BB92BBE3ECF9E03197F1F700C000003A
:1001800028E025BB92BBE3ECF9E03197F1F700C022
:10019000000090E195BB82BB83EC99E00197F1F7F9
:1001A00000C0000008958FE184BB8FE781BB0E94EF
:0801B0003600FDCFF894FFCFEB
:00000001FF
