:100000000C942A000C9434000C9434000C943400AA
:100010000C9434000C9434000C9434000C94340090
:100020000C9434000C9434000C9434000C94340080
:100030000C9434000C9434000C9434000C94340070
:100040000C9434000C9434000C9434000C94340060
:100050000C94340011241FBECFE5D8E0DEBFCDBF25
:100060000E943A000C9452000C9400005D9BFECF5D
:100070008CB908951F9310BC88E089B91BB896E825
:1000800090BD8AB910E20AC01F5F812F0E9436001E
:1000900087EA91E60197F1F700C000001123A4F769
:0800A00010E2FCCFF894FFCF41
:00000001FF
